{
    "contractName": "EggMaker",
    "abi": [
        {
            "inputs": [
                {
                    "internalType": "address",
                    "name": "_factory",
                    "type": "address"
                },
                {
                    "internalType": "address",
                    "name": "_bar",
                    "type": "address"
                },
                {
                    "internalType": "address",
                    "name": "_sushi",
                    "type": "address"
                },
                {
                    "internalType": "address",
                    "name": "_weth",
                    "type": "address"
                }
            ],
            "stateMutability": "nonpayable",
            "type": "constructor"
        },
        {
            "anonymous": false,
            "inputs": [
                {
                    "indexed": true,
                    "internalType": "address",
                    "name": "token",
                    "type": "address"
                },
                {
                    "indexed": true,
                    "internalType": "address",
                    "name": "bridge",
                    "type": "address"
                }
            ],
            "name": "LogBridgeSet",
            "type": "event"
        },
        {
            "anonymous": false,
            "inputs": [
                {
                    "indexed": true,
                    "internalType": "address",
                    "name": "server",
                    "type": "address"
                },
                {
                    "indexed": true,
                    "internalType": "address",
                    "name": "token0",
                    "type": "address"
                },
                {
                    "indexed": true,
                    "internalType": "address",
                    "name": "token1",
                    "type": "address"
                },
                {
                    "indexed": false,
                    "internalType": "uint256",
                    "name": "amount0",
                    "type": "uint256"
                },
                {
                    "indexed": false,
                    "internalType": "uint256",
                    "name": "amount1",
                    "type": "uint256"
                },
                {
                    "indexed": false,
                    "internalType": "uint256",
                    "name": "amountSUSHI",
                    "type": "uint256"
                }
            ],
            "name": "LogConvert",
            "type": "event"
        },
        {
            "anonymous": false,
            "inputs": [
                {
                    "indexed": true,
                    "internalType": "address",
                    "name": "previousOwner",
                    "type": "address"
                },
                {
                    "indexed": true,
                    "internalType": "address",
                    "name": "newOwner",
                    "type": "address"
                }
            ],
            "name": "OwnershipTransferred",
            "type": "event"
        },
        {
            "inputs": [],
            "name": "bar",
            "outputs": [
                {
                    "internalType": "address",
                    "name": "",
                    "type": "address"
                }
            ],
            "stateMutability": "view",
            "type": "function"
        },
        {
            "inputs": [
                {
                    "internalType": "address",
                    "name": "token",
                    "type": "address"
                }
            ],
            "name": "bridgeFor",
            "outputs": [
                {
                    "internalType": "address",
                    "name": "bridge",
                    "type": "address"
                }
            ],
            "stateMutability": "view",
            "type": "function"
        },
        {
            "inputs": [],
            "name": "claimOwnership",
            "outputs": [],
            "stateMutability": "nonpayable",
            "type": "function"
        },
        {
            "inputs": [
                {
                    "internalType": "address",
                    "name": "token0",
                    "type": "address"
                },
                {
                    "internalType": "address",
                    "name": "token1",
                    "type": "address"
                }
            ],
            "name": "convert",
            "outputs": [],
            "stateMutability": "nonpayable",
            "type": "function"
        },
        {
            "inputs": [
                {
                    "internalType": "address[]",
                    "name": "token0",
                    "type": "address[]"
                },
                {
                    "internalType": "address[]",
                    "name": "token1",
                    "type": "address[]"
                }
            ],
            "name": "convertMultiple",
            "outputs": [],
            "stateMutability": "nonpayable",
            "type": "function"
        },
        {
            "inputs": [],
            "name": "factory",
            "outputs": [
                {
                    "internalType": "contract IUniswapV2Factory",
                    "name": "",
                    "type": "address"
                }
            ],
            "stateMutability": "view",
            "type": "function"
        },
        {
            "inputs": [],
            "name": "owner",
            "outputs": [
                {
                    "internalType": "address",
                    "name": "",
                    "type": "address"
                }
            ],
            "stateMutability": "view",
            "type": "function"
        },
        {
            "inputs": [],
            "name": "pendingOwner",
            "outputs": [
                {
                    "internalType": "address",
                    "name": "",
                    "type": "address"
                }
            ],
            "stateMutability": "view",
            "type": "function"
        },
        {
            "inputs": [
                {
                    "internalType": "address",
                    "name": "token",
                    "type": "address"
                },
                {
                    "internalType": "address",
                    "name": "bridge",
                    "type": "address"
                }
            ],
            "name": "setBridge",
            "outputs": [],
            "stateMutability": "nonpayable",
            "type": "function"
        },
        {
            "inputs": [
                {
                    "internalType": "address",
                    "name": "newOwner",
                    "type": "address"
                },
                {
                    "internalType": "bool",
                    "name": "direct",
                    "type": "bool"
                },
                {
                    "internalType": "bool",
                    "name": "renounce",
                    "type": "bool"
                }
            ],
            "name": "transferOwnership",
            "outputs": [],
            "stateMutability": "nonpayable",
            "type": "function"
        }
    ],
    "bytecode": "61010060405234801561001157600080fd5b506040516117953803806117958339818101604052608081101561003457600080fd5b5080516020820151604080840151606090940151600080546001600160a01b0319163390811782559251949593949192917f8be0079c531659141344cd1fd0a4f28419497f9722a3daafe3b4186f6b6457e0908290a36001600160601b0319606094851b811660805292841b831660a05290831b821660c05290911b1660e05260805160601c60a05160601c60c05160601c60e05160601c611632610163600039806105b752806106d55280610ccf5280610d0c5280610eb15280610eee5280610f175280610f445280610f815280610faa52508061057a5280610c395280610c7e5280610d6c5280610db15280610e155280610e5a52806110dd52508061078a5280610ca05280610dd35280610e7c52806110ff52508061075752806107b0528061112f52506116326000f3fe608060405234801561001057600080fd5b506004361061009e5760003560e01c8063a761a93911610066578063a761a939146101f7578063bd1b820c1461021d578063c45a01551461024b578063e30c397814610253578063febb0f7e1461025b5761009e565b8063078dfbe7146100a3578063303e6aa4146100db5780634e71e0c81461019d5780638da5cb5b146101a55780639d22ae8c146101c9575b600080fd5b6100d9600480360360608110156100b957600080fd5b506001600160a01b03813516906020810135151590604001351515610263565b005b6100d9600480360360408110156100f157600080fd5b81019060208101813564010000000081111561010c57600080fd5b82018360208201111561011e57600080fd5b8035906020019184602083028401116401000000008311171561014057600080fd5b91939092909160208101903564010000000081111561015e57600080fd5b82018360208201111561017057600080fd5b8035906020019184602083028401116401000000008311171561019257600080fd5b50909250905061039f565b6100d9610448565b6101ad61050a565b604080516001600160a01b039092168252519081900360200190f35b6100d9600480360360408110156101df57600080fd5b506001600160a01b0381358116916020013516610519565b6101ad6004803603602081101561020d57600080fd5b50356001600160a01b03166106b2565b6100d96004803603604081101561023357600080fd5b506001600160a01b03813581169160200135166106fa565b6101ad610755565b6101ad610779565b6101ad610788565b6000546001600160a01b031633146102c2576040805162461bcd60e51b815260206004820181905260248201527f4f776e61626c653a2063616c6c6572206973206e6f7420746865206f776e6572604482015290519081900360640190fd5b811561037e576001600160a01b0383161515806102dc5750805b610325576040805162461bcd60e51b81526020600482015260156024820152744f776e61626c653a207a65726f206164647265737360581b604482015290519081900360640190fd5b600080546040516001600160a01b03808716939216917f8be0079c531659141344cd1fd0a4f28419497f9722a3daafe3b4186f6b6457e091a3600080546001600160a01b0319166001600160a01b03851617905561039a565b600180546001600160a01b0319166001600160a01b0385161790555b505050565b3332146103ec576040805162461bcd60e51b81526020600482015260166024820152754567674d616b65723a206d7573742075736520454f4160501b604482015290519081900360640190fd5b8260005b818110156104405761043886868381811061040757fe5b905060200201356001600160a01b031685858481811061042357fe5b905060200201356001600160a01b03166107ac565b6001016103f0565b505050505050565b6001546001600160a01b03163381146104a8576040805162461bcd60e51b815260206004820181905260248201527f4f776e61626c653a2063616c6c657220213d2070656e64696e67206f776e6572604482015290519081900360640190fd5b600080546040516001600160a01b03808516939216917f8be0079c531659141344cd1fd0a4f28419497f9722a3daafe3b4186f6b6457e091a3600080546001600160a01b039092166001600160a01b0319928316179055600180549091169055565b6000546001600160a01b031681565b6000546001600160a01b03163314610578576040805162461bcd60e51b815260206004820181905260248201527f4f776e61626c653a2063616c6c6572206973206e6f7420746865206f776e6572604482015290519081900360640190fd5b7f00000000000000000000000000000000000000000000000000000000000000006001600160a01b0316826001600160a01b0316141580156105ec57507f00000000000000000000000000000000000000000000000000000000000000006001600160a01b0316826001600160a01b031614155b801561060a5750806001600160a01b0316826001600160a01b031614155b61065b576040805162461bcd60e51b815260206004820152601860248201527f4567674d616b65723a20496e76616c6964206272696467650000000000000000604482015290519081900360640190fd5b6001600160a01b0382811660008181526002602052604080822080546001600160a01b0319169486169485179055517f2e103aa707acc565f9a1547341914802b2bfe977fd79c595209f248ae4b006139190a35050565b6001600160a01b0380821660009081526002602052604090205416806106f557507f00000000000000000000000000000000000000000000000000000000000000005b919050565b333214610747576040805162461bcd60e51b81526020600482015260166024820152754567674d616b65723a206d7573742075736520454f4160501b604482015290519081900360640190fd5b61075182826107ac565b5050565b7f000000000000000000000000000000000000000000000000000000000000000081565b6001546001600160a01b031681565b7f000000000000000000000000000000000000000000000000000000000000000081565b60007f00000000000000000000000000000000000000000000000000000000000000006001600160a01b031663e6a4390584846040518363ffffffff1660e01b815260040180836001600160a01b03168152602001826001600160a01b031681526020019250505060206040518083038186803b15801561082c57600080fd5b505afa158015610840573d6000803e3d6000fd5b505050506040513d602081101561085657600080fd5b505190506001600160a01b0381166108ae576040805162461bcd60e51b815260206004820152601660248201527522b3b3a6b0b5b2b91d1024b73b30b634b2103830b4b960511b604482015290519081900360640190fd5b61093c81826001600160a01b03166370a08231306040518263ffffffff1660e01b815260040180826001600160a01b0316815260200191505060206040518083038186803b1580156108ff57600080fd5b505afa158015610913573d6000803e3d6000fd5b505050506040513d602081101561092957600080fd5b50516001600160a01b0384169190610aa3565b600080826001600160a01b03166389afcb44306040518263ffffffff1660e01b815260040180826001600160a01b031681526020019150506040805180830381600087803b15801561098d57600080fd5b505af11580156109a1573d6000803e3d6000fd5b505050506040513d60408110156109b757600080fd5b50805160209182015160408051630dfe168160e01b815290519295509093506001600160a01b03861692630dfe168192600480840193829003018186803b158015610a0157600080fd5b505afa158015610a15573d6000803e3d6000fd5b505050506040513d6020811015610a2b57600080fd5b50516001600160a01b03868116911614610a4157905b6001600160a01b03808516908616337fd06b1d7ed79b664d17472c6f6997b929f1abe463ccccb4e5b6a0038f2f730c158585610a7f8b8b8484610c0d565b60408051938452602084019290925282820152519081900360600190a45050505050565b604080516001600160a01b038481166024830152604480830185905283518084039091018152606490920183526020820180516001600160e01b031663a9059cbb60e01b178152925182516000946060949389169392918291908083835b60208310610b205780518252601f199092019160209182019101610b01565b6001836020036101000a0380198251168184511680821785525050505050509050019150506000604051808303816000865af19150503d8060008114610b82576040519150601f19603f3d011682016040523d82523d6000602084013e610b87565b606091505b5091509150818015610bb5575080511580610bb55750808060200190516020811015610bb257600080fd5b50515b610c06576040805162461bcd60e51b815260206004820152601a60248201527f5361666545524332303a205472616e73666572206661696c6564000000000000604482015290519081900360640190fd5b5050505050565b6000836001600160a01b0316856001600160a01b03161415610d6a576000610c35848461107e565b90507f00000000000000000000000000000000000000000000000000000000000000006001600160a01b0316866001600160a01b03161415610ccd57610cc56001600160a01b037f0000000000000000000000000000000000000000000000000000000000000000167f000000000000000000000000000000000000000000000000000000000000000083610aa3565b809150610d64565b7f00000000000000000000000000000000000000000000000000000000000000006001600160a01b0316866001600160a01b03161415610d3857610d317f0000000000000000000000000000000000000000000000000000000000000000826110d5565b9150610d64565b6000610d43876106b2565b9050610d518782843061112a565b9150610d608182846000610c0d565b9250505b50611076565b7f00000000000000000000000000000000000000000000000000000000000000006001600160a01b0316856001600160a01b03161415610e1357610df86001600160a01b037f0000000000000000000000000000000000000000000000000000000000000000167f000000000000000000000000000000000000000000000000000000000000000085610aa3565b610e0c83610e0686856110d5565b9061107e565b9050611076565b7f00000000000000000000000000000000000000000000000000000000000000006001600160a01b0316846001600160a01b03161415610eaf57610ea16001600160a01b037f0000000000000000000000000000000000000000000000000000000000000000167f000000000000000000000000000000000000000000000000000000000000000084610aa3565b610e0c82610e0687866110d5565b7f00000000000000000000000000000000000000000000000000000000000000006001600160a01b0316856001600160a01b03161415610f4257610e0c7f0000000000000000000000000000000000000000000000000000000000000000610f3d85610e06887f0000000000000000000000000000000000000000000000000000000000000000883061112a565b6110d5565b7f00000000000000000000000000000000000000000000000000000000000000006001600160a01b0316846001600160a01b03161415610fd057610e0c7f0000000000000000000000000000000000000000000000000000000000000000610f3d84610e06897f0000000000000000000000000000000000000000000000000000000000000000893061112a565b6000610fdb866106b2565b90506000610fe8866106b2565b9050856001600160a01b0316826001600160a01b031614156110225761101b82876110158a868a3061112a565b87610c0d565b9250611073565b866001600160a01b0316816001600160a01b031614156110535761101b87828761104e8a868a3061112a565b610c0d565b61107082826110648a868a3061112a565b61104e8a868a3061112a565b92505b50505b949350505050565b818101818110156110cf576040805162461bcd60e51b8152602060048201526016602482015275536166654d6174683a20416464204f766572666c6f7760501b604482015290519081900360640190fd5b92915050565b6000611123837f0000000000000000000000000000000000000000000000000000000000000000847f000000000000000000000000000000000000000000000000000000000000000061112a565b9392505050565b6000807f00000000000000000000000000000000000000000000000000000000000000006001600160a01b031663e6a4390587876040518363ffffffff1660e01b815260040180836001600160a01b03168152602001826001600160a01b031681526020019250505060206040518083038186803b1580156111ab57600080fd5b505afa1580156111bf573d6000803e3d6000fd5b505050506040513d60208110156111d557600080fd5b505190506001600160a01b038116611234576040805162461bcd60e51b815260206004820152601860248201527f4567674d616b65723a2043616e6e6f7420636f6e766572740000000000000000604482015290519081900360640190fd5b600080826001600160a01b0316630902f1ac6040518163ffffffff1660e01b815260040160606040518083038186803b15801561127057600080fd5b505afa158015611284573d6000803e3d6000fd5b505050506040513d606081101561129a57600080fd5b5080516020909101516dffffffffffffffffffffffffffff918216935016905060006112c8876103e5611597565b9050836001600160a01b0316630dfe16816040518163ffffffff1660e01b815260040160206040518083038186803b15801561130357600080fd5b505afa158015611317573d6000803e3d6000fd5b505050506040513d602081101561132d57600080fd5b50516001600160a01b038a8116911614156114685761135281610e06856103e8611597565b61135c8284611597565b8161136357fe5b04945061137a6001600160a01b038a168589610aa3565b604080516000808252602082019283905263022c0d9f60e01b835260248201818152604483018990526001600160a01b038a81166064850152608060848501908152845160a48601819052918a169563022c0d9f958c948e9491939092909160c4850191908083838b5b838110156113fc5781810151838201526020016113e4565b50505050905090810190601f1680156114295780820380516001836020036101000a031916815260200191505b5095505050505050600060405180830381600087803b15801561144b57600080fd5b505af115801561145f573d6000803e3d6000fd5b5050505061158b565b61147881610e06846103e8611597565b6114828285611597565b8161148957fe5b0494506114a06001600160a01b038a168589610aa3565b604080516000808252602082019283905263022c0d9f60e01b835260248201888152604483018290526001600160a01b038a81166064850152608060848501908152845160a48601819052918a169563022c0d9f958c95948e9491939092909160c4850191908083838a5b8381101561152357818101518382015260200161150b565b50505050905090810190601f1680156115505780820380516001836020036101000a031916815260200191505b5095505050505050600060405180830381600087803b15801561157257600080fd5b505af1158015611586573d6000803e3d6000fd5b505050505b50505050949350505050565b60008115806115b2575050808202828282816115af57fe5b04145b6110cf576040805162461bcd60e51b8152602060048201526016602482015275536166654d6174683a204d756c204f766572666c6f7760501b604482015290519081900360640190fdfea264697066735822122000fab4652efcbed3b0617d322b6ee276153e7de17623d6afa9b6fe8ed352435d64736f6c634300060c0033",
    "sourcePath": "e:/wgmi/phoenixswap/contracts/EggMaker.sol",
    "compiler": {
        "name": "solc",
        "version": "0.6.12+commit.27d51765"
    },
    "functionHashes": {
        "bar()": "febb0f7e",
        "bridgeFor(address)": "a761a939",
        "claimOwnership()": "4e71e0c8",
        "convert(address,address)": "bd1b820c",
        "convertMultiple(address[],address[])": "303e6aa4",
        "factory()": "c45a0155",
        "owner()": "8da5cb5b",
        "pendingOwner()": "e30c3978",
        "setBridge(address,address)": "9d22ae8c",
        "transferOwnership(address,bool,bool)": "078dfbe7"
    },
    "gasEstimates": {
        "creation": {
            "codeDepositCost": "1136400",
            "executionCost": "infinite",
            "totalCost": "infinite"
        },
        "external": {
            "bar()": "infinite",
            "bridgeFor(address)": "infinite",
            "claimOwnership()": "45067",
            "convert(address,address)": "infinite",
            "convertMultiple(address[],address[])": "infinite",
            "factory()": "infinite",
            "owner()": "1104",
            "pendingOwner()": "1103",
            "setBridge(address,address)": "infinite",
            "transferOwnership(address,bool,bool)": "24395"
        },
        "internal": {
            "_convert(address,address)": "infinite",
            "_convertStep(address,address,uint256,uint256)": "infinite",
            "_swap(address,address,uint256,address)": "infinite",
            "_toSUSHI(address,uint256)": "infinite"
        }
    }
}